:100000000C9474020C9491020C9491020C94910241
:100010000C9491020C9491020C949A020C9491020B
:100020000C9491020C9491020C9491020C94910204
:100030000C9491020C9491020C9491020C949102F4
:100040000C9491020C9491020C9459140C9491020A
:100050000C9491020C9491020C9491020C949102D4
:100060000C9491020C94910280402010080402012B
:100070000102040810204080FF7F3F1F0F0703018B
:10008000160004010B0E18120A10050703080617C4
:100090001C1B1D02191111091A140C15131300044D
:1000A0000D120A0503080617110F090081048004C8
:1000B00005018106010501050313A00004031301D6
:1000C000A1A1130301000080808143448145444481
:1000D000421B8182031B0002030405060708090A6C
:1000E0000C0D0F101112131415161718191A1B1EC8
:1000F0001F20404142434648494C4F5051525859A5
:100100005AA702BF121E0AB0090207C505A206C2FD
:1001100005E10631070D07150AEA117D095009A00E
:100120000CD30A8D0CB00A93026612CF11DA11A516
:10013000128213C6133F12A614991536151C116DA1
:100140000E890ED90E520F630F7011A80E9A190660
:10015000175F16CA1630185D18081A7C1601262279
:100160000E22066F6E006F666600030601207F0098
:1001700000000017000300031F0A1F0A1F050904DF
:10018000120F171C000300000E11110E000A040AC2
:10019000040E041008000404040010001804031ED8
:1001A000110F021F0019151211150A07041F171548
:1001B000091E151D1905031F151F17150F000A002D
:1001C000100A00040A110A0A0A110A040115030E92
:1001D00015161E051E1F150A0E11111F110E1F15D3
:1001E000151F05050E151D1F041F111F1108100FE7
:1001F0001F041B1F10101F061F1F0E1F0E110E1FA6
:1002000005020E191E1F0D16121509011F010F10F0
:100210001F0718071F0C1F1B041B031C03191513B2
:100220001F111102040811111F0201021010100009
:1002300001021A161C1F120C0C12120C121F0C1A9F
:1002400016041E050C2A1E1F021C001D0010201D76
:100250001F0C12111F101E0E1E1E021C0C120C3E33
:10026000120C0C123E1C0202141E0A021F120E1067
:100270001E0E180E1E1C1E120C1206281E1A1E160A
:10028000041B11001B00111B0402030105080120BF
:100290007F000000000000005F0000000700070072
:1002A000147F147F14242A7F2A12231308646236D1
:1002B000495522500000030000001C22410000416B
:1002C000221C0014083E081408083E08080000A07C
:1002D000600008080808080000606000201008049A
:1002E000023E5149453E00427F400042615149462D
:1002F0002141454B311814127F1027454545393CA3
:100300004A494930037109050336494949360649C6
:1003100049291E00006C6C000000AC6C000814221F
:1003200041002828282828004122140802015109E8
:1003300006324979413E7E1111117E7F4949493685
:100340003E414141227F4141413E7F494949417FF0
:10035000090909013E414149727F0808087F0041AF
:100360007F41002040413F017F081422417F4040EF
:1003700040407F020C027F7F0408107F3E414141D4
:100380003E7F090909063E4151215E7F0919294630
:10039000264949493201017F01013F4040403F1F4A
:1003A0002040201F3F4038403F6314081463070873
:1003B0007008076151494543007F4141000204082C
:1003C00010200041417F00040201020480808080EF
:1003D00080000102040020545454787F484444387B
:1003E0003844444420384444487F3854545418080E
:1003F0007E09010218A4A4A4787F100808700048A0
:100400007A4000002040483A7F1028440000417F95
:1004100040007C043804787C080404783844444460
:10042000387C14141408081414187C7C080404087C
:100430004854545420043E4440203C4040207C1CFE
:100440002040201C3C4030403C44281028440C50A4
:1004500050503C4464544C4400083641002040FF56
:1004600040200041360800100808100842617564F9
:10047000726174653A0053706C61736820203A00B1
:1004800043524C46202020203A005363726F6C6C1C
:1004900020203A0042274C69676874203A00786F40
:1004A0006E2F786F66663A0056657273696F6E20BC
:1004B0003A002F0030300030006000C00080014062
:1004C0000280046C04760480048A0494049E04A8C8
:1004D000040A1080C0400C3EFEF2E0F0E0FF7F3FD7
:1004E0001F1F1F1F0F07030011241FBECFEFD4E0F3
:1004F000DEBFCDBF11E0A0E0B1E0E4ECF7E302C065
:1005000005900D92A230B107D9F723E0A2E0B1E047
:1005100001C01D92A43AB207E1F70E942A1A0C9476
:10052000E01B0C94000091E0803409F090E090937F
:10053000EE0208951F920F920FB60F9211240F90A2
:100540000FBE0F901F9018952A9A229A0895CF9364
:10055000C82F853610F4843639F41092800010923A
:1005600081002A98C4E61BC0811106C01092800049
:10057000109281002A9A13C02A9882E38093800007
:1005800089E18093810024E630E030938700209356
:1005900086002C2F30E030938B0020938A0062304D
:1005A00021F44C2F85EC0E943F128C2FCF9108959F
:1005B000E091F102F0E0F195E195F109E623F723EE
:1005C000EF2B11F5481759072CF4E82F392FCA01E2
:1005D0004E2F532F57FD18C0E0910203F0E08E1705
:1005E0009F0794F44E175F071CF0AF01415051096B
:1005F000E091EF02F091F002A591B49197FF02C053
:1006000080E090E0FD010994089597FD29C0E091F4
:100610000203F0E08E179F071CF5461757072CF4CE
:10062000E62F372FBA014E2F532F57FD19C0E091F7
:10063000F102F0E06E177F079CF44E175F071CF085
:10064000AF0141505109E091EF02F091F0023C9668
:10065000A591B49177FF02C060E070E0FD010994BC
:1006600008952F923F924F925F926F927F928F9256
:100670009F92AF92BF92CF92DF92EF92FF920F9331
:100680001F93CF93DF93CDB7DEB765970FB6F8947E
:10069000DEBF0FBECDBFF42E602E712C41E050E0C6
:1006A0004619570958874F83EE27FF27E619F709A0
:1006B000EE0FFF1FFC87EB87282E312C862E912C06
:1006C0008E2D80959091E602892780FBE0F8422FDD
:1006D00050E05E834D83480D591D5C834B83412C54
:1006E000512C1D8A1C8A388A2F868F2D90E09A877C
:1006F00089873E2D38703B8B820D931D9A8B898B99
:100700009E868D86461457040CF05BC14F81588538
:1007100057FD44C18401061917098C899D89892BCD
:1007200009F054C02E2DC988DA88C40CD51CA60146
:10073000B8010F85188904191509C8010E94D8024B
:10074000B401660D771DED81FE816E0F7F1F2E2D8A
:10075000A601C8010E94D8023B893323F1F0AD8481
:10076000BE84A418B5086101C60CD71C49855A85FA
:10077000C40ED51E8101061917098B819C818A152B
:100780009B050CF4F8C02E2DA601B501C8010E94EE
:10079000D8025FEFA51AB50AF0CF2E2D0D851E8564
:1007A00004191509A8016B817C81C101860D971D73
:1007B000E985FA858E0F9F1F0E9405032E2DA80143
:1007C0006B817C81C10186199709D3C03B89332392
:1007D00009F45FC02E2DC988DA88C40CD51CA60187
:1007E000B8010F85188904191509C8010E94D8029B
:1007F000B401660D771D4D815E81640F751F2E2D2E
:10080000A601C8010E94D8020D851E85041915098C
:10081000C401EC89FD898E1B9F0B9A83898361013A
:10082000C60CD71C29853A85C20ED31E5101A618C5
:10083000B70849815A81401751074CF02E2DA60167
:10084000B801C5010E94D8020F5F1F4FF2CFAC88DC
:10085000BD88A80CB91C8D819E81A80EB91E6101AE
:10086000C60CD71CE985FA85CE0EDF1E810106195C
:1008700017092B813C812A153B050CF47CC02E2DD9
:10088000A601B501C8010E94D802FFEFAF1ABF0A46
:10089000F0CFAC88BD88A20CB31C49855A85A40E44
:1008A000B51E2E2D89899A89840D951D9A83898379
:1008B000AC01B801C5010E94D8026401C60CD71C66
:1008C000ED81FE81CE0EDF1E2E2D49815A81B601AB
:1008D000C5010E94D80251012C893D89A21AB30A90
:1008E0002E2D4F855889441955095A834983B601DD
:1008F000C5010E94D8022E2D49815A81B801C50137
:100900000E94D8020C891D89080D191D8D819E81B8
:10091000080F191F6101C60CD71CE985FA85CE0E98
:10092000DF1E2E2D4B815C81B801C6010E9405039C
:1009300094014C895D89241B350B3A8329832E2D24
:10094000AD84BE84A418B508A50169817A81C60169
:100950000E9405032E2DA50169817A816101C618C7
:10096000D708C6010E9405032E2D4B815C81B8017A
:10097000C6010E94050351E0651A71088B859C85AC
:1009800002969C878B87EF81F885E80FF91FF8871F
:10099000EF8392012F5F3F4F3D8B2C8BC201880F5D
:1009A000991F03964F815885480F591F58874F83C9
:1009B0005FEF451A550A8B819C8101969C838B833E
:1009C000A1CE4614570409F0C4C08F2D90E06101F8
:1009D000C40CD51C8101041915093401640C751C63
:1009E000C80ED91EE3FE46C06D817E81660D771D5F
:1009F0002E2DA601C8010E94D802B4016419750900
:100A00002E2DA601C8010E94D802EC89FD89E415AB
:100A1000F5050CF09EC06C897D89680D791D2D81CE
:100A20003E81620F731F2E2DA601C8010E94D802BD
:100A3000B4014C895D89641B750B2E2DA601C8017C
:100A400065960FB6F894DEBF0FBECDBFDF91CF9194
:100A50001F910F91FF90EF90DF90CF90BF90AF90DC
:100A60009F908F907F906F905F904F903F902F90CE
:100A70000C94D8022D813E81620E731EAC88BD8815
:100A8000A20CB31CA80EB91E2E2DA601B301C501E0
:100A90000E94D802A401441955095C834B832E2D72
:100AA000A6016B817C81C5010E94D80251018C890D
:100AB0009D89A81AB90A2E2DA801B301C5010E946B
:100AC000D8022E2DA8016B817C81C5010E94D8021D
:100AD000EC89FD89E415F505E4F5AC88BD88A80C22
:100AE000B91C8D819E81A80EB91E2E2DA501B501C0
:100AF000C6010E9405032E2DA501B501C8010E9463
:100B00000503EC89FD898E1A9F0A2E2DA401B401DC
:100B1000C6010E9405032E2DA401B401C8016596EB
:100B20000FB6F894DEBF0FBECDBFDF91CF911F91FE
:100B30000F91FF90EF90DF90CF90BF90AF909F907C
:100B40008F907F906F905F904F903F902F900C947C
:100B5000050365960FB6F894DEBF0FBECDBFDF91DB
:100B6000CF911F910F91FF90EF90DF90CF90BF90AA
:100B7000AF909F908F907F906F905F904F903F903D
:100B80002F9008958093030308956F927F928F9220
:100B90009F92AF92BF92CF92DF92EF92FF920F930C
:100BA0001F93CF93DF93B82EA62E902E9094809112
:100BB000E6029826392D3170932E802F8671982A5F
:100BC000842F90E0CB2DD0E04B1538F0AC014C1BBE
:100BD0005D0BEA017724739404C0C81BD90B7724FA
:100BE0007A94822F90E0EA2CF12C2A1538F0FC013F
:100BF000EE19FF097F018824839404C0E81AF90ADA
:100C000088248A94CE15DF050CF43EC06E01D7FF10
:100C100003C0FFEFCF1ADF0AD594C79407FD04C0C5
:100C20008E010F5F1F4F01C08E019FEF900F8B2D24
:100C30000150110917FD1AC0CE0CDF1C6B2C670C7C
:100C4000CC16DD068CF0CC1ADD0AE091EF02F091B3
:100C5000F002A591B491292D4B2D6A2DFD01099526
:100C6000A80CB62C902FE3CFB62CE2CF992309F431
:100C70005AC0E091EF02F091F002A591B4914B2D92
:100C80004719292D6A2D3FC06701F7FE03C0FFEF0A
:100C9000CF1ADF0AD594C79407FD04C087010F5F00
:100CA0001F4F01C087018FEF800F6A2D015011097E
:100CB00017FD1CC0CC0EDD1E6A2C680CCE14DF04A0
:100CC0009CF0CE18DF08E091EF02F091F0023C9624
:100CD000A591B491292D4A2D8B2DFD010995B70CB5
:100CE000662D802FA62CE2CFA62CE0CF8823D9F04A
:100CF000E091EF02F091F0023C96A591B4914A2D5B
:100D00004819292D8B2DFD01DF91CF911F910F9156
:100D1000FF90EF90DF90CF90BF90AF909F908F901B
:100D20007F906F900994DF91CF911F910F91FF9069
:100D3000EF90DF90CF90BF90AF909F908F907F907B
:100D40006F900895AF92BF92DF92EF92FF920F9350
:100D50001F93CF93DF931F92CDB7DEB7D62E642FAC
:100D600059018068F82EA114B10439F0F501E08032
:100D70001181C50102965C0108C069830E940114BB
:100D8000E82E0E940114182F698117FF04C01F77F5
:100D90009F2D9F77F92E0F2D212F4E2D8D2D0E94E7
:100DA000C505F7FE03C0612FDE2CDDCF0F90DF916C
:100DB000CF911F910F91FF90EF90DF90BF90AF9078
:100DC0000895909102038917E0F4262F30E0E09116
:100DD000F102F0E0F195E195F1092E233F23232B59
:100DE00081F4E091EF02F091F00238962591349170
:100DF000942F90955091E602952790FB40F9F901C8
:100E000009940895EF920F93E22E042F20E040E022
:100E10000E9431030F91EF900895EF920F93902F5E
:100E2000302F330F481718F48427482784272617B4
:100E300018F4622726276227481B261B522F4217C9
:100E400008F4542F531718F4952F9695352F231B1C
:100E5000431B690F092F890F0E9431030F91EF90F7
:100E600008952F923F924F925F926F927F928F924E
:100E70009F92AF92BF92CF92DF92EF92FF920F9329
:100E80001F93CF93DF93CDB7DEB729970FB6F894B2
:100E9000DEBF0FBECDBF6C83B42E390183FFBBC153
:100EA000982F90952091E6029227982E90FB90F82B
:100EB000242F30E08091F10290E091958195910985
:100EC00082239323892B29F4F901EC5FFC4F8FEFE8
:100ED0008083BB82BA823B2CDC801D82CC24CA94E6
:100EE0001E8288248A943E8131110BC00E94011415
:100EF000A82E0E940114582F50785E838F77282ED9
:100F000005C02B2CAC808B2D8068B82E032D10E0F3
:100F100032102AC0F801EC5FFC4F8081DA1409F42A
:100F20004AC1AD1458F41C140CF045C18F3F21F098
:100F30008D1510F08082D82E41E009C0C1103BC150
:100F40008F3F21F0D81610F08082D82E4FEF4A0D37
:100F5000E091EF02F091F002A591B491292D632D5B
:100F60008D2DFD01099527C1822D90E0321430F5B9
:100F70002C01401A510A8091F10290E001975B81A7
:100F8000521530F08FEF91E0C81211C0998313C051
:100F90005B81252F30E028173907A4F73B813F5F9D
:100FA0003B83E32FF0E0EC5FFC4F8082E8CF9C2591
:100FB0009D8331E03983CC24C3941BC02801481A97
:100FC000590A9A81291658F4992349F05A815150A7
:100FD0005A83E52FF0E0EC5FFC4F8082F2CFAFEF59
:100FE000CA1203C03FEF398303C0CD825FEF59833C
:100FF000C12C2A2D30E04D2D50E0AD1440F091E091
:10100000AD1001C090E03901641A750A04C03A01BC
:10101000621A730A9FEF3D81332361F10C5F1C4F0D
:10102000D8014C91B1E0CB120EC04F3F71F0D416F5
:1010300008F5E091EF02F091F002A591B491292D0D
:10104000632D81E010C04F3F19F4F801D08212C027
:101050004D1580F4E091EF02F091F002A591B4916A
:10106000292D632D8FEF8D0D9F83FD010995D801EB
:101070008C929F81641475040CF461C0930177FE17
:1010800002C02F5F3F4FF901F595E795F987E88793
:101090008D2D730141E0E41AF108F7FC37C0288573
:1010A0003985240D351D398728872615370564F1C4
:1010B00031E0C31203C0913019F003C09F3F09F41F
:1010C0008D2D032D10E00C5F1C4FD8014C914F3F2C
:1010D00069F0E091EF02F091F002A591B491292D11
:1010E000632D9F83FD0109958FEF9F81D8018C931C
:1010F000E885F985E619F709F987E8873981330E1C
:101100008D2D890FD82EC6CFD90EC4CF8D1509F4D9
:1011100051C0032D10E00C5F1C4FD8014C914F3F84
:1011200059F0E091EF02F091F002A591B491292DD0
:10113000632DFD0109958FEFD8018C933BC092017F
:1011400057FE02C02F5F3F4FF901F595E795F987EC
:10115000E887720141E0E41AF108F7FC2BC0032D87
:1011600010E00C5F1C4FD8014C914F3F79F0E0919B
:10117000EF02F091F002A591B491292D632D8D2DF0
:101180009F83FD0109958FEF9F8101C08D2DD801AF
:101190008C93E885F985E60DF71DF987E887E41556
:1011A000F5052CF0E419F509F987E887D90E39819E
:1011B000330ED0CF322CB7FC02C0DA2C94CE6B2D7C
:1011C0006F77E62FF0E0EC5FFC4F40814F3F09F472
:1011D0004EC0E091EF02F091F002A591B491292D5B
:1011E0008C81FD0129960FB6F894DEBF0FBECDBFEE
:1011F000DF91CF911F910F91FF90EF90DF90CF90F3
:10120000BF90AF909F908F907F906F905F904F9026
:101210003F902F9009948068982E642FDC80611491
:10122000710441F0D3011C911196FC90F3013296A8
:101230003F0108C06F830E940114182F0E940114FF
:10124000F82E6F81FF2DFF77EF2E092D2F2F412FC5
:101250008D2D0E94C505F7FC03C06F2DD12EDFCF69
:10126000092D2B2D4C816E2D812F0E94C5052996AD
:101270000FB6F894DEBF0FBECDBFDF91CF911F91A7
:101280000F91FF90EF90DF90CF90BF90AF909F9025
:101290008F907F906F905F904F903F902F90089528
:1012A000EF92FF920F93CF93DF931F92CDB7DEB7EC
:1012B0000983481718F48427482784274F5F481B61
:1012C000261718F4622726276227E091EF02F09193
:1012D000F0023A96A591B4910091E60208602F5F62
:1012E000261BFE0131967F01FD0109950F90DF91CC
:1012F000CF910F91FF90EF900895EF92FF920F938F
:10130000CF93DF931F92CDB7DEB79FEF9983902FD6
:1013100090953091E602932790FB00F9481718F456
:101320008427482784274F5F481B261718F4622715
:1013300026276227E091EF02F091F0023A96A591FC
:10134000B49108602F5F261BFE0131967F01FD01DD
:1013500009950F90DF91CF910F91FF90EF90089535
:10136000EF92FF920F931F93CF93DF93D82F162FF7
:10137000E42EC22F03FF09C00E947D09DF91CF91A7
:101380001F910F91FF90EF900895F02EF0948091AF
:10139000E602F8268F2D8170F82E0E77F02A4D1771
:1013A00018F4D427ED26DE25C11718F41C27C12711
:1013B0001C27E091EF02F091F002A591B4914FEF5C
:1013C0004E0D2F2D612F8D2FFD010995E091EF021C
:1013D000F091F0023C96A591B4914FEF4C0F2F2D58
:1013E000612F8E2DFD010995E091EF02F091F00241
:1013F000A591B49141E04D0F2F2D6C2F8E2DFD0145
:101400000995E091EF02F091F0023C96A591B4911C
:1014100041E0410F2F2D6C2F8D2FFD01DF91CF91DA
:101420001F910F91FF90EF9009940F930091E602A6
:10143000009501700E947D090F910895AF92BF92AF
:10144000DF92EF92FF920F931F93CF93DF9300D021
:10145000CDB7DEB7D82E5901F090E602211531053F
:1014600059F44A8369830E940114182F0E940114C1
:10147000282F4A81698106C0F90110812181C501A7
:1014800002965C01222351F08091F102821730F024
:10149000112321F080910203811780F4AB2801F51C
:1014A000F12CF216E9F000E0011731F029830E94D7
:1014B00001140F5F2981F8CFF394F3CFE091EF028D
:1014C000F091F0023A96A591B491042F00950F2562
:1014D00001704E77042B7501412F8D2DFD0109956B
:1014E0000F900F90DF91CF911F910F91FF90EF9090
:1014F000DF90BF90AF900895009711F48CE892E0D0
:101500009093060180930501FC01249120930C0126
:101510003196349130930A013196E491E0930901B8
:10152000E20FE0930B01FC013396E491E093080194
:10153000FC013496849180930701E32FF0E0379605
:1015400083E0F595E7958A95E1F72E9FE02D11242C
:10155000E0930D018FEF80930401809303010895C0
:10156000CF93DF9300D0CDB7DEB7482F417080FD19
:1015700003C08CE892E002C08AE691E049836A8366
:101580000E947C0A6A814981683041F46BE085ECF5
:101590000F900F90DF91CF910C943F120F900F900E
:1015A000DF91CF9108958093100108950F9340919A
:1015B0000F0160910B0120910A01461720F58091DF
:1015C0000203382F361B90E0841B910970E00E94C3
:1015D0009B1B381B30930F0140910E01421778F48A
:1015E0008091F102382F321B90E0841B9109622F09
:1015F00070E00E949B1B381B30930E0107C0421BFA
:1016000040930E0103C0461B40930F0160910E01F1
:1016100080910F010091E60200950170260F215084
:1016200040910C01480F0E947D090F91089580910F
:10163000020180930F018FEF8093040180930301D7
:10164000089580910E019091F1028917C0F0909158
:10165000EB0291110FC0E091EF02F091F0023E9683
:10166000259134914091E60268EF84E093E0F9011E
:1016700009950AC060910A010E948F1B03C09091D6
:101680000A01980F90930E018091E802811102C027
:101690000E94170B8FEF809304018093030108953C
:1016A000CF92DF92EF92FF920F931F93CF93DF932E
:1016B0001F92CDB7DEB7082F80910E0160910A010D
:1016C000482F50E02091F10230E0261B3109241709
:1016D00035071CF59091EB02911116C0E091EF02D5
:1016E000F091F0023E96259134914091E60268EF28
:1016F00084E093E0F901099580910E0190910A012F
:10170000891B80930E0104C00E948F1B90930E01D1
:101710008FEF8093040180930301E09110018E2FDD
:1017200080959091E60289271E2F80FB10F9809109
:101730000801081720F090910701901708F4082F6E
:1017400060910D0190EAC92EC61A402F50E0481B47
:10175000510970E0469F9001479F300D569F300D14
:1017600011248091050190910601F0900A014C2D01
:101770002B5F3F4FD12C620F731FE072EE2E2617A6
:101780003707B8F4FC01E20FF31F5491511107C061
:10179000003229F0EE2019F0F8E0FF1538F4A42FFC
:1017A000B0E0AE50BD4F5C93D3944F5F2F5F3F4F7F
:1017B000E6CF90910901992311F120910F01921721
:1017C000F0F48091040182131AC06091030120910A
:1017D0000E01621314C01982E091EF02F091F00241
:1017E0003A96A591B4919E012F5F3F4F7901012F49
:1017F000086020910A01492F891BFD010995E0919C
:10180000EF02F091F0023A96A591B4918C2D90E000
:101810008E509D4F7C01012F20910A014D2D60912A
:101820000E0180910F01FD01099540910901809100
:101830000F01480F4D0D40930F012091020330E03E
:1018400080910C0190E0840F911D821793073CF06A
:101850008091020180930F010E94210B06C04093EA
:10186000040180910E01809303010F90DF91CF91CD
:101870001F910F91FF90EF90DF90CF900895CF933D
:10188000DF93FC018491EF012196882321F00E94CF
:10189000500BFE01F7CFDF91CF910895811103C066
:1018A00086E691E002C083E691E00C943F0C0F9332
:1018B0001F93CF93DF9300D000D000D0CDB7DEB719
:1018C0008C011E8297FF06C08DE20E94500B11957D
:1018D00001951109FE0136962AE030E0C801B901F0
:1018E0000E949B1B805D82938B0161157105B1F78E
:1018F0008F01F80181918F010E94500BF8018081C6
:101900008111F7CF26960FB6F894DEBF0FBECDBF7C
:10191000DF91CF911F910F910895493119F4809370
:101920000E0108C080930F0180930201483111F02D
:1019300060930E018FEF809304018093030108955B
:10194000CF92DF92FF920F931F93CF93DF9300D03C
:10195000CDB7DEB7F82E00E010E0802F90E04A838C
:1019600069830E94DA13982F4A8169818F3F09F4B5
:101970003EC020910801921720F08091070189173D
:1019800008F4922FA0910D01E92FF0E0E21BF1097C
:10199000B0E0EA9F9001EB9F300DFA9F300D1124CB
:1019A000C0900501D09006015091100150728091B5
:1019B0000A012B5F3F4FA20FB31F2A173B0780F48A
:1019C000F601E20FF31FE491E11106C0903221F01D
:1019D000552311F0893008F01F5F2F5F3F4FEDCF87
:1019E000002319F080910901180F0F5FB6CF411144
:1019F00007C0212F30E02F5F3F4F35952795122FDD
:101A000040E08F2D811B0E948D0C1092EE020F90F2
:101A10000F90DF91CF911F910F91FF90DF90CF90AA
:101A2000089598B1292F2D7F922F9460256098B941
:101A300000000000000028B90000000000000000C5
:101A4000000000004F99FECF98B99827907311F0CD
:101A5000982FE8CF08951F93CF93DF931F92CDB7B0
:101A6000DEB7182F892F99830E94110D998198B99B
:101A7000392F3160812F8C7F8BB925B1812F8370F5
:101A80002C7F822B85B984B1836038B984B98CEFFF
:101A90008AB9000000000000000098B91AB884B1AB
:101AA0008C7F84B90F90DF91CF911F910895CF93D0
:101AB000DF931F92CDB7DEB7892F99830E94110D56
:101AC000998198B9892F8160000088B900000000D1
:101AD000000000000000000083B129B12C7F83705A
:101AE00098B9822B0F90DF91CF91089587709091D4
:101AF0001101981739F08093110190E0886B986379
:101B00000C942B0D08954F925F926F927F928F925B
:101B10009F92AF92BF92CF92DF92EF92FF920F937C
:101B20001F93CF93DF931F92CDB7DEB7982F862FE9
:101B3000842E690199830E94760D9981903428F052
:101B40009054A12C30E1B32E03C0A12C20E2B22E80
:101B500080E4891B881520F4782C781A882E01C01F
:101B6000712C4E2D4170F42E1E2D16705E2D54706A
:101B7000E52E902E90949501206438609F73F901B2
:101B8000E92BCF010E942B0DFEE0BF2AC5010E9468
:101B9000570D2601682C6C0CC5010E94570DF201EF
:101BA0009081F11001C08095112351F0143038F06C
:101BB000EE2011F0982704C09095982301C0982B2F
:101BC00090238921982BF20191932F016E12E4CF7B
:101BD0008A94482D50E04F5F5F4FC40ED51E77208A
:101BE00039F090E0A12C80E1B82E872C712CC3CF66
:101BF0000F90DF91CF911F910F91FF90EF90DF90A9
:101C0000CF90BF90AF909F908F907F906F905F909C
:101C10004F9008958F929F92AF92BF92CF92DF9292
:101C2000EF92FF920F931F93CF93DF931F92CDB745
:101C3000DEB7982F862FD42E4901B02E99830E94AB
:101C4000760D9981903420F0905400E010E102C0AC
:101C500000E010E280E4891B8D1520F4CD2CC81A19
:101C6000D82E01C0C12C2B2D2170B22E98012064DA
:101C700038609F73A901492BCA010E942B0D740182
:101C80001A60A82CAD0CF70181917F01B11001C041
:101C900080959801282BC9010E942B0DAE10F3CF1F
:101CA000DA944D2D50E04F5F5F4F840E951ECC208F
:101CB00031F090E000E010E1DC2CC12CD7CF0F9088
:101CC000DF91CF911F910F91FF90EF90DF90CF9018
:101CD000BF90AF909F908F90089580E8809302030B
:101CE00080E48093F10284E088B98FE387B92FEF15
:101CF0008DEE92E0215080409040E1F700C000005E
:101D0000439A8FE398E30E942B0D8FEF809311018C
:101D100008950F931F93CF93DF938170815010E04C
:101D2000C82FD0E0DA63812F0E94760D80E498E31B
:101D30000E942B0D00E4CE010E942B0D0150D9F71B
:101D40001F5F183081F7DF91CF911F910F91089598
:101D5000DF92EF92FF920F931F93CF93DF93EC01EB
:101D6000842F8170F82E10E0DD24D394D10E17302B
:101D700031F480E8FE0111928A95E9F708C0EF2C52
:101D800000E09E0140E86D2D80E00E94830D0F2D44
:101D90009E0140E8612F80E00E940A0E1D2D183040
:101DA00019F7DF91CF911F910F91FF90EF90DF9086
:101DB0000895EF920F931F93CF93DF93EC0110E000
:101DC000EE24E39400E09E0140E8612F80E00E9451
:101DD000830D9E0140E8612F80E00E940A0E1F5F84
:101DE000183071F7DF91CF911F910F91EF90089507
:101DF000AF92BF92CF92DF92EF92FF920F931F9319
:101E0000CF93DF93C82F862FD42EB22EC02E0E94E0
:101E1000760DC03418F400E010E202C000E010E1DA
:101E2000CF73D0E0C064D860C02BD12BCE010E940C
:101E30002B0D8C2D8170A82E8C2D867109F17801C7
:101E40008EE0F82AC7010E94570DC7010E94570D66
:101E5000A11001C080959C2D967051F0943038F0FF
:101E6000C2FE02C0D82604C0D094D82201C0D82A0D
:101E7000DB202B2D20952823D22ACE010E942B0D6A
:101E8000A11001C0D094C8019A608D29DF91CF9133
:101E90001F910F91FF90EF90DF90CF90BF90AF9088
:101EA0000C942B0D0F93042FE62FE770F0E0E05910
:101EB000FF4F44910061669566956695242F0E94B8
:101EC000F80E0F9108952F923F924F925F926F926A
:101ED0007F928F929F92AF92BF92CF92DF92EF92BA
:101EE000FF920F931F93CF93DF93CDB7DEB7609729
:101EF0000FB6F894DEBF0FBECDBF482E642E502F14
:101F0000F88AEF86862F8770582E48E0F42EF81A4C
:101F100087E0820F952C980E9694969496948695C9
:101F2000869586958F832830B8F481E090E001C0D3
:101F3000880F2A95EAF7815090E09C010F2C02C08F
:101F4000359527950A94E2F7722E882E052C01C04C
:101F5000880C0A94EAF71EC0EFEFF0E08E2E052CF5
:101F600001C0880C0A94EAF7862F90E0820F911D39
:101F700087709927009761F028E030E0281B390B23
:101F8000DF0102C0B595A7952A95E2F77A2E02C027
:101F900077247A9453FF15C0577FEF85F8898081A5
:101FA00090E09C010F2C02C0359527950A94E2F72A
:101FB000052C01C0880F0A94EAF7822B80831982CE
:101FC00009C08F859889892B19F492E0998302C002
:101FD000A1E0A9836695669566956887C12CD12C8A
:101FE000A12CB12C10E0BFEFB90DB987E62DF0E0C0
:101FF000FE83ED833197FB87EA878C2D98859C0DB6
:102000009A83C91408F0DFC0811113C0552049F02C
:10201000F1E09F1202C013E001C011E05061082DF1
:1020200024C081E098121BC087FC19C05061082DA4
:102030001BC0998589130BC0AFEF7A1250615520F0
:1020400081F0BF81072DB9110FC012E00EC05110F1
:1020500002C010E001C012E05F7E0FEF06C0082D45
:1020600001C0072D10E001C013E0E4E0F3E0FC83C1
:10207000EB83212C312C261408F089C0F981F11151
:1020800004C0AF85B8898C9179C0B981B130E1F5D0
:10209000113059F4EF85F889E20DF31D8081052C8C
:1020A00001C0880F0A94EAF769C02F8538892A0D84
:1020B0003B1DF9018081112319F1E82FF0E0123066
:1020C00091F48D819E81280F391FD9018C91052CA7
:1020D00001C0880F0A94EAF70F2C02C0F595E79526
:1020E0000A94E2F70CC0CF010F2C02C0959587959A
:1020F0000A94E2F7052C01C0EE0F0A94EAF78E2B42
:10210000BFEFAB1ABB0A3AC0113051F4C1015E8770
:102110000E94DA13052C01C0880F0A94EAF71EC04A
:102120005E870E9401145E85112341F1282F30E063
:102130001230B1F48A859B852C873D870E94DA1383
:10214000052C01C0880F0A94EAF72C853D850F2CD9
:1021500002C0359527950A94E2F7822B5E850EC062
:10216000F9010F2C02C0F595E7950A94E2F7052CCA
:1021700001C0220F0A94EAF78E2F822BEB81FC819B
:102180008193FC83EB83FFEF2F1A3F0A74CF852FD7
:10219000867151F0E52E24E033E0462D6A81842DCE
:1021A0005E870E94830D5E85052F077024E033E073
:1021B000462D6A81842D5E870E940A0E8FEFC81A11
:1021C000D80A5E851ACFA981A230E9F41230D9F479
:1021D000862D60960FB6F894DEBF0FBECDBFDF919F
:1021E000CF911F910F91FF90EF90DF90CF90BF9014
:1021F000AF909F908F907F906F905F904F903F90A7
:102200002F900C942E1460960FB6F894DEBF0FBE7C
:10221000CDBFDF91CF911F910F91FF90EF90DF9095
:10222000CF90BF90AF909F908F907F906F905F9076
:102230004F903F902F900895AF92BF92CF92DF9230
:10224000EF92FF920F931F93CF93DF93F82E4817CF
:1022500018F4F4264F25F426E62FE770F0E0E05955
:10226000FF4FA490C62EC694C694C69411E0140FD6
:102270001F19113430F080E48F19D12ED81A182F7D
:1022800001C0D12CC4E4D3E02061B22EA4E4B3E0B9
:102290008A2F8C1B811710F4AD92FACFEB2C0A2DEC
:1022A00024E433E0412F6C2D8F2D0E94830D0B2DE4
:1022B00024E433E0412F6C2D8F2D0E940A0EDD2087
:1022C00021F0F10E1D2DD12CE1CFDF91CF911F9187
:1022D0000F91FF90EF90DF90CF90BF90AF90089557
:1022E000EF92FF920F931F93CF93DF93182FF22E4D
:1022F000461718F4642746276427D1E0D40FD61B6D
:10230000862F8770C62FC695C695C6958823E1F09F
:10231000E8E0E81BF0E0E858FF4F44914095D80F03
:10232000D83038F4E8E0ED1BF0E0E858FF4FE491D6
:102330004E230F2D0061242F6C2F812F0E94F80E49
:10234000D93030F1CF5FD8508D2F86958695869500
:1023500081F06C2FC82FC60FEE24E394E60E0F2DEC
:102360002FEF4FEF812F0E94F80ECE1511F06E2D3A
:10237000F3CFD77069F0E8E0ED1BF0E0E858FF4FCD
:1023800044910F2D0061242F6C2F812F0E94F80E95
:10239000DF91CF911F910F91FF90EF900895F894E6
:1023A000809160008861809360008AE4809360007F
:1023B0007894FFCFE091EF02F091F00234962591EE
:1023C00034918091E602F901099540E060E080E0F7
:1023D0000C948D0C0F931F93CF93DF938DE0E2EE5F
:1023E000F2E0DF011D928A95E9F785ED8093E20224
:1023F00086E08093E30281E08093E60294E6909386
:10240000E4028093E50284E18093E90286EA809306
:10241000EA022B9ABAE1BA95F1F700C083B188704D
:102420008093EC022B988F01C0E0D0E0F80161911D
:102430008F01CE010E94D21B2196CC30D105B1F77D
:10244000C0E2D0E0FE01EF54FB4F6491CE010E9448
:10245000D21B2196C633D105A9F782E490E0EC01A6
:10246000219660E00E94D21BCC3FF1E0DF0711F023
:10247000CE01F5CFDF91CF911F910F9108950F936A
:102480001F93CF93DF931F92CDB7DEB7853CC1F486
:102490006D30B0F4062F10E0F801EE51FD4F40838F
:1024A000C80149830E94CA1B4981841749F0642FDF
:1024B000C8010F90DF91CF911F910F910C94D21B07
:1024C0000F90DF91CF911F910F9108951F93CF939C
:1024D000DF93182F81E50E94C6131C3030F4E12FE2
:1024E000F0E0EE51FD4F80812BC015FF09C01F7D2C
:1024F000163028F5E12FF0E0E35AFE4F849120C01A
:1025000016FF08C010FF03C08091F10219C080912E
:10251000020316C017FF13C0812F8F7786958E3068
:1025200070F41170C12F90E0D92F92E2899FC00DF5
:10253000D11D1124CE0180960E94CA1B01C08FEFCD
:10254000DF91CF911F910C94C613623151F441E099
:102550008091E602811140E064E085EC0E943F1228
:1025600003C081708093E602E091EF02F091F002E7
:1025700036962591349184E093E0F9010994EF9225
:10258000FF920F931F93CF93DF931F92CDB7DEB7C8
:1025900089830E94DA116091F1028981843069F0A7
:1025A0008091E502823049F46695809102032DE026
:1025B00040E886950E94A61493C0162F169568E4ED
:1025C00080E00E94B00A6091F1026695809102035A
:1025D00090E08456910997FD0196959587952DE099
:1025E00040E88C590E94A6142FE1210F60EE610F84
:1025F00035E0E32E08E044E680E00E940D0704EE9B
:10260000010F43ECE42E44E0F42E10E040E0602F94
:1026100084E00E948D0CF701859194910E943F0CFB
:10262000133099F128F41130C9F0123051F106C07D
:102630001530B1F190F1163009F43FC0E091E3029A
:10264000F0E0EE0FFF1FEB54FB4F859194910E9439
:10265000570C84EB94E00E943F0C3AC081E09091CB
:10266000E502911101C080E00E944E0C8091E502CC
:10267000882371F182EB94E00E943F0C8091E50287
:102680001AC081E09091E80203C081E09091EB02D2
:10269000911180E00E944E0C1BC08091E4020BC09F
:1026A0008091E90290E00E94570C82EB94E00E9436
:1026B0003F0C8091EA0290E009C081E090E00E9426
:1026C000570C8EE20E94500B86E290E00E94570C5D
:1026D000085F1F5F82E0E80EF11C173009F096CF0B
:1026E00080E090E00E94DA1368E48091ED020E949D
:1026F000B00A0F90DF91CF911F910F91FF90EF9053
:102700000C94DA11CF93C82F813308F0C0538FEFA8
:102710008C0F863020F080E190E0C6E015C0C1301B
:1027200051F0C23059F0C33059F0C43059F0C530BF
:1027300091F781E208C08FE991E006C08FEC03C0F9
:1027400087E601C083E390E0F8949093C5008093FE
:10275000C40082E08093C00088E98093C10086E0D5
:102760008093C20078944C2F61E085EC0E943F1268
:102770008C2FCF910895109213021092150210928F
:1027800014021092120286E00C9482139091C00001
:1027900095FFFCCF8093C6000895F894109215021F
:1027A000109214021092130210921202789481E196
:1027B0000C94C613CF93DF93EC018091130290E049
:1027C000C817D90758F0A895809112028823A9F359
:1027D00081E10E94C61310921202EFCF8091140281
:1027E0009E01280F311DC9012F3F310511F008F05E
:1027F0009A95A895FC01EE5EFE4F8081DF91CF9106
:102800000895CF9380911302811102C0A895FACF49
:10281000E091140281E08E0F80931402F0E0EE5EEE
:10282000FE4FC08180911402F89490911302915050
:1028300090931302789480911202882359F090911A
:1028400013028091E902981728F481E10E94C613CF
:1028500010921202A8958C2FCF910895CF93C82F74
:10286000F894809113028C1730F0809113028C1B26
:102870008093130204C0C091130210921302789443
:10288000809114028C0F8093140280911402809125
:102890001202882359F0909113028091E90298174F
:1028A00028F481E10E94C613109212028C2FCF915E
:1028B00008951F920F920FB60F9211242F933F93FA
:1028C0004F935F936F937F938F939F93AF93BF9338
:1028D000EF93FF93F894E091150281E08E0F8093BF
:1028E00015028091C600F0E0EE5EFE4F808380917D
:1028F0001502809113028F3F11F40E94C61380913C
:1029000013028F5F80931302909113028091EA0269
:10291000891750F48091C00085FF06C083E1809341
:10292000C60081E0809312027894FF91EF91BF91ED
:10293000AF919F918F917F916F915F914F913F9157
:102940002F910F900FBE0F901F9018959F92AF92EE
:10295000BF92CF92DF92EF92FF920F931F93CF938C
:10296000DF9300D01F92CDB7DEB7B82EA22E47FF5F
:1029700043C04F774E3008F06AC082E2489F600142
:102980001124C60180966B830E94CA1BF82E860113
:102990000E5D1F4FC60181960E94CA1BE82FF0E012
:1029A000379693E0F595E7959A95E1F7FE9E902C82
:1029B00011242EE9291930E02C5F3C4FF901F082F7
:1029C00081837901F2E0EF0EF11C6B819A94FFEFA5
:1029D0009F16D1F068018FEFC81AD80AC801298361
:1029E0003A836B830E94CA1BF70181937F018601A2
:1029F0006B813A812981EACF463048F582E2489FCF
:102A0000900111242A5E3D4FA3FE0FC0F901808181
:102A100086958B1508F4B81AF90181818695861779
:102A200008F4681BFA2DF77FAF2E4A2D8B2D0F90DF
:102A30000F900F90DF91CF911F910F91FF90EF902A
:102A4000DF90CF90BF90AF909F900C941E0A0F9094
:102A50000F900F90DF91CF911F910F91FF90EF900A
:102A6000DF90CF90BF90AF909F900895CF92DF926C
:102A7000EF92FF920F931F93CF93DF931F92CDB7E7
:102A8000DEB7242F30E0295F3F4F53E0359527957F
:102A90005A95E1F7629F102D112487FF27C08F7789
:102AA0008E3008F08DE092E2899F60011124C6010A
:102AB000809649830E94D21B4981642FC60181966A
:102AC0000E94D21B112359F1E2E2CE0ED11CFC2C44
:102AD000F10E0E94011486010F5F1F4F682FC6017F
:102AE0000E94D21BF016D9F06801F3CF863008F0AF
:102AF00085E092E2899FF0011124EA5EFD4F608338
:102B00004183112361F07F0182E0E80EF11C1E0D6C
:102B10000E940114F70181937F011E13F9CF0F90DA
:102B2000DF91CF911F910F91FF90EF90DF90CF90A9
:102B300008954091E5024F5F433008F040E063E0C4
:102B400085EC0C943F122091000188B1897F88B9EF
:102B500084B18C7F84B98AB183708AB993B189B109
:102B60008C7F9370892B98B1966098B982238213D9
:102B7000ECCF0895CF93DF931F92CDB7DEB7898353
:102B80000E94A31594B1936094B99AB19C6F9AB9BD
:102B90009BB193709BB995B19C7F95B925B1898103
:102BA000982F9370922B95B99BB18C7F892B8BB901
:102BB00088B1827F88B90000000088B18D6088B933
:102BC0000F90DF91CF9108950E94A31588B1817F66
:102BD00088B984B18C7F84B98AB183708AB983B192
:102BE00099B19C7F837028B12E6028B9892B0895F4
:102BF000CF93DF9300D0CDB7DEB789839A830E944D
:102C0000A31524B1236024B92AB12C6F2AB92BB1A2
:102C100023702BB925B12C7F25B935B18981282F97
:102C20002370232B25B92BB18C7F822B8BB988B1D4
:102C30008A7F88B99A819093000188B1856088B9AC
:102C40000F900F90DF91CF910895CF93DF938695EA
:102C500086958695C82FD0E084E1689FC00DD11D70
:102C600011248C2F0E94BA158D2F0E94BA1584E270
:102C700093E0DF91CF910C94F815CF93DF93C82F99
:102C8000D0E084E1689FC00DD11D11248C2F0E94DB
:102C9000BA158D2F0E94BA1584E293E0DF91CF918F
:102CA0000C94F815942F9670943038F042FF02C0BF
:102CB00086270895809586230895862B08951F936F
:102CC000CF93DF93182F1170115060E080E00E94C5
:102CD000251680EB98E00E94F815C0E0DAE0812F1D
:102CE0000E94BA1521972097D1F782EB93E0DF91EC
:102CF000CF911F910C94F815AF92BF92DF92EF9293
:102D00000F931F93CF93DF93E82ED92E417041503C
:102D100010E0A42EB12C183741F440EA50E0B50180
:102D20008E2D9D2D0E94C31B15C068E0610F80E0B1
:102D30000E94251681EB94E00E94F815CE2DDD2D22
:102D400000EA0E94E41589930150D9F782EB93E0E1
:102D50000E94F815612F80E00E94251680EB98E014
:102D60000E94F815CE2DDD2D00EA89910E94BA153A
:102D70000150D9F782EB93E00E94F815185F1038E4
:102D800051F6DF91CF911F910F91EF90DF90BF909F
:102D9000AF900895EF92FF920F931F93CF93DF931D
:102DA000F82EE92E10E0612F80E00E94251681EBBD
:102DB00094E00E94F815CF2DDE2D00EA0E94E41564
:102DC00089930150D9F782EB93E00E94F815612FA7
:102DD00080E00E94251680EB98E00E94F815CF2D28
:102DE000DE2D00EA899180950E94BA150150D1F735
:102DF00082EB93E00E94F815185F1038A1F6DF917E
:102E0000CF911F910F91FF90EF9008958FE388B9B4
:102E100087B980EA8093020380E88093F10280E022
:102E20000E94BA1580E00E94BA1582E493E00E94E5
:102E3000F81584E10E94BA1580E00E94BA1583E477
:102E400093E00E94F81580E893E00E94F81588E965
:102E500093E00C94F815DF92EF92FF920F931F937B
:102E6000CF93DF937A01E9010E943D1681E0E816D5
:102E7000F104C9F485EC93E00E94F8150E94E41572
:102E800000FF8095902F967129F0402F682F888140
:102E90000E9452168883DF91CF911F910F91FF906E
:102EA000EF90DF90089581EB94E00E94F815EC0E0E
:102EB000FD1E102F1170802F8671D82ECE15DF05C4
:102EC00071F00E94E415111101C08095DD2029F0F8
:102ED000402F682F88810E9452168993EFCF82EB92
:102EE00093E0DF91CF911F910F91FF90EF90DF90D2
:102EF0000C94F815EF92FF920F93CF93DF937A0122
:102F0000E9010E943D1681E0E816F10431F4888160
:102F10000E94BA1584EC93E013C080EB98E00E9405
:102F2000F815EC0EFD1E0170CE15DF0539F0899104
:102F3000011101C080950E94BA15F6CF82EB93E093
:102F4000DF91CF910F91FF90EF900C94F815BF9205
:102F5000CF92DF92EF92FF920F931F93CF93DF9365
:102F6000D82EC62E7A01E901102F802F8671B82E37
:102F70004130510541F58D2D0E943D160170BB2059
:102F800079F085EC93E00E94F8150E94E415011198
:102F900001C08095412F682F88810E94521601C080
:102FA0008881011101C080950E94BA1584EC93E0DC
:102FB000DF91CF911F910F91FF90EF90DF90CF9015
:102FC000BF900C94F815BB2019F08D2D0E942B1783
:102FD000012F9E01A7016C2D8D2D0E947A17DF9184
:102FE000CF911F910F91FF90EF90DF90CF90BF9006
:102FF0000895FF920F931F93CF93DF93C42F122F47
:103000000E943D16802F8671902F9170F92E882393
:10301000C1F085EC93E00E94F8150E94E415D82FCA
:10302000F11001C0D095802F867031F0402F6D2FA8
:103030008C2F0E945216C82FC123212F20952D239B
:10304000C22BF11001C0C0958C2F0E94BA1584ECE0
:1030500093E0DF91CF911F910F91FF900C94F815A1
:103060000F93CF93DF93042FC82FC770942F9670C0
:10307000D0E0A1F40E94251600FF03C028EF33E042
:1030800002C020EF33E087E090E08C1B9D0B822B89
:10309000932BDF91CF910F910C94F815FE01E85915
:1030A000FF4F249100614FEF8695869586950E948B
:1030B000F917DF91CF910F9108952F923F924F9280
:1030C0005F926F927F928F929F92AF92BF92CF92B8
:1030D000DF92EF92FF920F931F93CF93DF93CDB7C1
:1030E000DEB7A7970FB6F894DEBF0FBECDBF162F81
:1030F0004D8F2E8F098F5701982F97709E8B940FAD
:103100009D8B292E312C2101E7E04E0E511C23E02E
:10311000559447942A95E1F797709F8F982E96942F
:103120009694969491E0990D99A3188E1F8A6E013A
:10313000E9E0CE0ED11C9E012F5F3F4F3A8B298BC9
:10314000CE0141969C8B8B8BFE89EF2FF0E0E858E7
:10315000FF4FFC8FEB8FFF88FF0CFF0CFF0C9E8D49
:10316000F91608F0CEC000E0998D9870E92E9D897F
:10317000091708F053C0002311F0812C01C08E887C
:10318000C101801B910908971CF088E0682E01C0DE
:103190006F8CA114B10419F40E94011407C0F50149
:1031A0008081E11003C0FFEFAF1ABF0AF601E80DFE
:1031B000F11D80838394861460F3DE0151968E9115
:1031C000F601982F907822912695922B9083880F64
:1031D00029893A89E217F307A1F7AC15BD0579F7FC
:1031E000DE015196F60182918E9389899A89E817BA
:1031F000F907C9F7802F86958695869590E0F601A8
:103200002191DC01AC5FBC4F2C93840D951D2B8963
:103210003C89E217F307A1F7085FA9CF8E8D8F19BC
:10322000893008F088E0810F8AA3612C712C998D78
:1032300090619A8F9D8998509BA3F101E858FF4FA8
:10324000FDA3ECA39AA1191709F455C093012C5FB3
:103250003C4F790191E0910F98A3D9019E89992360
:1032600009F1EB8DFC8D24919D89993068F498309B
:1032700029F0ECA1FDA18491809528230A8DF70106
:103280004081612F892D31C07BA1FFEFEF1AFF0A2A
:103290000A8D4C91612F892D7FA30E94F91799A166
:1032A0007FA102C07D8D992D872E86948694869469
:1032B00061F0482D50E0098D9701612F892F7FA380
:1032C0009EA30E94A7179EA17FA1777081F0E72F90
:1032D000F0E0E858FF4F24912095D701A80DB11DCB
:1032E0000A8D4C91612F882D890F0E94F917640C6B
:1032F000751C18A1A7CFEF89F88D3196F88FEF8B49
:103300002ACFA7960FB6F894DEBF0FBECDBFDF91D0
:10331000CF911F910F91FF90EF90DF90CF90BF90D2
:10332000AF909F908F907F906F905F904F903F9065
:103330002F900895EF92FF920F931F93CF93DF93F7
:10334000162FF22E841309C0422FDF91CF911F91C7
:103350000F91FF90EF900C943018481718F48427C1
:1033600048278427D1E0D40FD81B982F9770C82FF7
:10337000C695C695C6959923D1F0E92FF0E0E85897
:10338000FF4F4491D90FD83038F4ED2FF0E0E858D2
:10339000FF4FE491E0954E230F2D0061242F612F04
:1033A0008C2F0E94F917D93060F1D850CF5FED2EE5
:1033B000E694E694E694B1F0A0E09FEF81E08A0FF6
:1033C000B0E0AC57BC4F9C938E1511F0A82FF6CFF0
:1033D0004E2D50E00F2D24E833E0612F8C2F0E94FA
:1033E000A717CE0DD77069F0ED2FF0E0E858FF4F2A
:1033F000449140950F2D0061242F612F8C2F0E9446
:10340000F917DF91CF911F910F91FF90EF900895E1
:10341000FF920F931F93CF93DF931F92CDB7DEB729
:10342000F82E042F461718F464270627602706177E
:1034300050F011E0160F422F8F2D29830E94301873
:10344000612F2981F4CF0F90DF91CF911F910F91C0
:10345000FF900895CF93DF93CDB7DEB727970FB6D0
:10346000F894DEBF0FBECDBFF894809160008861F4
:10347000809360008FE48093600078948DE0E2EEAA
:10348000F2E0DF011D928A95E9F76F0100E010E09C
:10349000C8010E94CA1BF60181936F010F5F1F4F85
:1034A0000C301105A9F78091E202853D49F4809125
:1034B000E3028150863020F48091E6028E7F11F085
:1034C0000E94EA118091EC02882319F08DE491E0CA
:1034D00002C08DE391E09093F0028093EF020E948E
:1034E000A40260E08091E4020E94A7028093E402BB
:1034F000E091EF02F091F002329685919491FC01F7
:10350000099568E48091ED020E94B00A81E00E9472
:10351000D30A81E0809303038091E3020E94821327
:103520008093E3020E94CD138091E502882321F06D
:1035300080E00E94BF1202C00E94DA110E940114B2
:10354000082F10E08091EE0281114EC0003211056B
:10355000ACF40A30110564F00A30110519F40E9428
:10356000210BECCF0D30110549F70E94170BE6CF68
:103570000830110519F70E94D60AE0CF0C37110563
:1035800039F40E940114082F10E00C37110561F581
:10359000802F0E94500BD2CF842F992787FD9095C2
:1035A000850F911D57FD9A9595958795282F33275F
:1035B00027FD3095F901EA52FF4FE491F0E00E1734
:1035C0001F07A9F0E017F1070CF0A6C051E0580F53
:1035D000451714F70C37110509F0B0CF1092EE0221
:1035E0000E940114082F10E050E04AE2D5CFF90103
:1035F000E058FF4FE491F0E0EE0FFF1FEF5FFE4F4A
:10360000C590D490F901E555FF4FF490F3FE05C045
:1036100080910303898391E001C090E0FF2DF77052
:10362000EF2E9E1594F4BB24B394B90E9F830E9491
:1036300001149F81A1E0B0E0AC0FBD1FA90FB11D27
:1036400097FDBA958C939B2DECCF892FF5FE0AC080
:103650009F5FA1E0B0E0AC0FBD1FA80FB11D87FDBB
:10366000BA951C92F7FE0AC0A1E0B0E0AC0FBD1FF6
:10367000A90FB11D97FDBA950C939F5FF6FE0CC084
:10368000A1E0B0E0AC0FBD1FA90FB11D97FDBA9529
:10369000809103038C939F5F943014F592304CF427
:1036A000911103C0F601099549CF8981F601099569
:1036B00045CF923029F46A818981F60109953ECF80
:1036C000F4FE08C020E030E04B816A818981F60178
:1036D000099534CF4B816A818981F60109952ECFF6
:1036E00096308CF4953041F40D812C814B816A81A8
:1036F0008981F601099522CF2C814B816A818981CC
:10370000F60109951BCFEE800D812C814B816A81DA
:103710008981F601099512CF4FEF480F59CF991BB8
:1037200079E004C0991F961708F0961B881F7A95B8
:10373000C9F78095089597FB072E16F4009407D0DB
:1037400077FD09D00E94AF1B07FC05D03EF4909591
:1037500081959F4F0895709561957F4F0895AA1B9D
:10376000BB1B51E107C0AA1FBB1FA617B70710F06C
:10377000A61BB70B881F991F5A95A9F7809590959E
:10378000BC01CD010895DC0101C06D934150504052
:10379000E0F70895F999FECF92BD81BDF89A992777
:1037A00080B50895262FF999FECF1FBA92BD81BD2D
:1037B00020BD0FB6F894FA9AF99A0FBE01960895B3
:0437C000F894FFCFAB
:0237C400030000
:00000001FF
